{
  "_format": "hh-sol-artifact-1",
  "contractName": "DiplomaNFT",
  "sourceName": "contracts/DiplomaNFT.sol",
  "abi": [
    {
      "inputs": [],
      "stateMutability": "nonpayable",
      "type": "constructor"
    },
    {
      "inputs": [
        {
          "internalType": "address",
          "name": "sender",
          "type": "address"
        },
        {
          "internalType": "uint256",
          "name": "tokenId",
          "type": "uint256"
        },
        {
          "internalType": "address",
          "name": "owner",
          "type": "address"
        }
      ],
      "name": "ERC721IncorrectOwner",
      "type": "error"
    },
    {
      "inputs": [
        {
          "internalType": "address",
          "name": "operator",
          "type": "address"
        },
        {
          "internalType": "uint256",
          "name": "tokenId",
          "type": "uint256"
        }
      ],
      "name": "ERC721InsufficientApproval",
      "type": "error"
    },
    {
      "inputs": [
        {
          "internalType": "address",
          "name": "approver",
          "type": "address"
        }
      ],
      "name": "ERC721InvalidApprover",
      "type": "error"
    },
    {
      "inputs": [
        {
          "internalType": "address",
          "name": "operator",
          "type": "address"
        }
      ],
      "name": "ERC721InvalidOperator",
      "type": "error"
    },
    {
      "inputs": [
        {
          "internalType": "address",
          "name": "owner",
          "type": "address"
        }
      ],
      "name": "ERC721InvalidOwner",
      "type": "error"
    },
    {
      "inputs": [
        {
          "internalType": "address",
          "name": "receiver",
          "type": "address"
        }
      ],
      "name": "ERC721InvalidReceiver",
      "type": "error"
    },
    {
      "inputs": [
        {
          "internalType": "address",
          "name": "sender",
          "type": "address"
        }
      ],
      "name": "ERC721InvalidSender",
      "type": "error"
    },
    {
      "inputs": [
        {
          "internalType": "uint256",
          "name": "tokenId",
          "type": "uint256"
        }
      ],
      "name": "ERC721NonexistentToken",
      "type": "error"
    },
    {
      "inputs": [
        {
          "internalType": "address",
          "name": "owner",
          "type": "address"
        }
      ],
      "name": "OwnableInvalidOwner",
      "type": "error"
    },
    {
      "inputs": [
        {
          "internalType": "address",
          "name": "account",
          "type": "address"
        }
      ],
      "name": "OwnableUnauthorizedAccount",
      "type": "error"
    },
    {
      "anonymous": false,
      "inputs": [
        {
          "indexed": true,
          "internalType": "address",
          "name": "owner",
          "type": "address"
        },
        {
          "indexed": true,
          "internalType": "address",
          "name": "approved",
          "type": "address"
        },
        {
          "indexed": true,
          "internalType": "uint256",
          "name": "tokenId",
          "type": "uint256"
        }
      ],
      "name": "Approval",
      "type": "event"
    },
    {
      "anonymous": false,
      "inputs": [
        {
          "indexed": true,
          "internalType": "address",
          "name": "owner",
          "type": "address"
        },
        {
          "indexed": true,
          "internalType": "address",
          "name": "operator",
          "type": "address"
        },
        {
          "indexed": false,
          "internalType": "bool",
          "name": "approved",
          "type": "bool"
        }
      ],
      "name": "ApprovalForAll",
      "type": "event"
    },
    {
      "anonymous": false,
      "inputs": [
        {
          "indexed": false,
          "internalType": "uint256",
          "name": "_fromTokenId",
          "type": "uint256"
        },
        {
          "indexed": false,
          "internalType": "uint256",
          "name": "_toTokenId",
          "type": "uint256"
        }
      ],
      "name": "BatchMetadataUpdate",
      "type": "event"
    },
    {
      "anonymous": false,
      "inputs": [
        {
          "indexed": false,
          "internalType": "uint256",
          "name": "_tokenId",
          "type": "uint256"
        }
      ],
      "name": "MetadataUpdate",
      "type": "event"
    },
    {
      "anonymous": false,
      "inputs": [
        {
          "indexed": true,
          "internalType": "address",
          "name": "previousOwner",
          "type": "address"
        },
        {
          "indexed": true,
          "internalType": "address",
          "name": "newOwner",
          "type": "address"
        }
      ],
      "name": "OwnershipTransferred",
      "type": "event"
    },
    {
      "anonymous": false,
      "inputs": [
        {
          "indexed": true,
          "internalType": "address",
          "name": "from",
          "type": "address"
        },
        {
          "indexed": true,
          "internalType": "address",
          "name": "to",
          "type": "address"
        },
        {
          "indexed": true,
          "internalType": "uint256",
          "name": "tokenId",
          "type": "uint256"
        }
      ],
      "name": "Transfer",
      "type": "event"
    },
    {
      "inputs": [
        {
          "internalType": "address",
          "name": "to",
          "type": "address"
        },
        {
          "internalType": "uint256",
          "name": "tokenId",
          "type": "uint256"
        }
      ],
      "name": "approve",
      "outputs": [],
      "stateMutability": "nonpayable",
      "type": "function"
    },
    {
      "inputs": [
        {
          "internalType": "address",
          "name": "owner",
          "type": "address"
        }
      ],
      "name": "balanceOf",
      "outputs": [
        {
          "internalType": "uint256",
          "name": "",
          "type": "uint256"
        }
      ],
      "stateMutability": "view",
      "type": "function"
    },
    {
      "inputs": [
        {
          "internalType": "uint256",
          "name": "tokenId",
          "type": "uint256"
        }
      ],
      "name": "getApproved",
      "outputs": [
        {
          "internalType": "address",
          "name": "",
          "type": "address"
        }
      ],
      "stateMutability": "view",
      "type": "function"
    },
    {
      "inputs": [
        {
          "internalType": "address",
          "name": "owner",
          "type": "address"
        },
        {
          "internalType": "address",
          "name": "operator",
          "type": "address"
        }
      ],
      "name": "isApprovedForAll",
      "outputs": [
        {
          "internalType": "bool",
          "name": "",
          "type": "bool"
        }
      ],
      "stateMutability": "view",
      "type": "function"
    },
    {
      "inputs": [
        {
          "internalType": "address",
          "name": "recipient",
          "type": "address"
        },
        {
          "internalType": "string",
          "name": "metadataURI",
          "type": "string"
        }
      ],
      "name": "mintDiploma",
      "outputs": [],
      "stateMutability": "nonpayable",
      "type": "function"
    },
    {
      "inputs": [],
      "name": "name",
      "outputs": [
        {
          "internalType": "string",
          "name": "",
          "type": "string"
        }
      ],
      "stateMutability": "view",
      "type": "function"
    },
    {
      "inputs": [],
      "name": "owner",
      "outputs": [
        {
          "internalType": "address",
          "name": "",
          "type": "address"
        }
      ],
      "stateMutability": "view",
      "type": "function"
    },
    {
      "inputs": [
        {
          "internalType": "uint256",
          "name": "tokenId",
          "type": "uint256"
        }
      ],
      "name": "ownerOf",
      "outputs": [
        {
          "internalType": "address",
          "name": "",
          "type": "address"
        }
      ],
      "stateMutability": "view",
      "type": "function"
    },
    {
      "inputs": [],
      "name": "renounceOwnership",
      "outputs": [],
      "stateMutability": "nonpayable",
      "type": "function"
    },
    {
      "inputs": [
        {
          "internalType": "address",
          "name": "from",
          "type": "address"
        },
        {
          "internalType": "address",
          "name": "to",
          "type": "address"
        },
        {
          "internalType": "uint256",
          "name": "tokenId",
          "type": "uint256"
        }
      ],
      "name": "safeTransferFrom",
      "outputs": [],
      "stateMutability": "nonpayable",
      "type": "function"
    },
    {
      "inputs": [
        {
          "internalType": "address",
          "name": "from",
          "type": "address"
        },
        {
          "internalType": "address",
          "name": "to",
          "type": "address"
        },
        {
          "internalType": "uint256",
          "name": "tokenId",
          "type": "uint256"
        },
        {
          "internalType": "bytes",
          "name": "data",
          "type": "bytes"
        }
      ],
      "name": "safeTransferFrom",
      "outputs": [],
      "stateMutability": "nonpayable",
      "type": "function"
    },
    {
      "inputs": [
        {
          "internalType": "address",
          "name": "operator",
          "type": "address"
        },
        {
          "internalType": "bool",
          "name": "approved",
          "type": "bool"
        }
      ],
      "name": "setApprovalForAll",
      "outputs": [],
      "stateMutability": "nonpayable",
      "type": "function"
    },
    {
      "inputs": [
        {
          "internalType": "bytes4",
          "name": "interfaceId",
          "type": "bytes4"
        }
      ],
      "name": "supportsInterface",
      "outputs": [
        {
          "internalType": "bool",
          "name": "",
          "type": "bool"
        }
      ],
      "stateMutability": "view",
      "type": "function"
    },
    {
      "inputs": [],
      "name": "symbol",
      "outputs": [
        {
          "internalType": "string",
          "name": "",
          "type": "string"
        }
      ],
      "stateMutability": "view",
      "type": "function"
    },
    {
      "inputs": [
        {
          "internalType": "uint256",
          "name": "tokenId",
          "type": "uint256"
        }
      ],
      "name": "tokenURI",
      "outputs": [
        {
          "internalType": "string",
          "name": "",
          "type": "string"
        }
      ],
      "stateMutability": "view",
      "type": "function"
    },
    {
      "inputs": [
        {
          "internalType": "address",
          "name": "from",
          "type": "address"
        },
        {
          "internalType": "address",
          "name": "to",
          "type": "address"
        },
        {
          "internalType": "uint256",
          "name": "tokenId",
          "type": "uint256"
        }
      ],
      "name": "transferFrom",
      "outputs": [],
      "stateMutability": "nonpayable",
      "type": "function"
    },
    {
      "inputs": [
        {
          "internalType": "address",
          "name": "newOwner",
          "type": "address"
        }
      ],
      "name": "transferOwnership",
      "outputs": [],
      "stateMutability": "nonpayable",
      "type": "function"
    }
  ],
  "bytecode": "0x60806040523480156200001157600080fd5b50336040518060400160405280600a81526020017f4469706c6f6d614e4654000000000000000000000000000000000000000000008152506040518060400160405280600381526020017f4449500000000000000000000000000000000000000000000000000000000000815250816000908162000090919062000472565b508060019081620000a2919062000472565b505050600073ffffffffffffffffffffffffffffffffffffffff168173ffffffffffffffffffffffffffffffffffffffff16036200011a5760006040517f1e4fbdf70000000000000000000000000000000000000000000000000000000081526004016200011191906200059e565b60405180910390fd5b6200012b816200013260201b60201c565b50620005bb565b6000600760009054906101000a900473ffffffffffffffffffffffffffffffffffffffff16905081600760006101000a81548173ffffffffffffffffffffffffffffffffffffffff021916908373ffffffffffffffffffffffffffffffffffffffff1602179055508173ffffffffffffffffffffffffffffffffffffffff168173ffffffffffffffffffffffffffffffffffffffff167f8be0079c531659141344cd1fd0a4f28419497f9722a3daafe3b4186f6b6457e060405160405180910390a35050565b600081519050919050565b7f4e487b7100000000000000000000000000000000000000000000000000000000600052604160045260246000fd5b7f4e487b7100000000000000000000000000000000000000000000000000000000600052602260045260246000fd5b600060028204905060018216806200027a57607f821691505b60208210810362000290576200028f62000232565b5b50919050565b60008190508160005260206000209050919050565b60006020601f8301049050919050565b600082821b905092915050565b600060088302620002fa7fffffffffffffffffffffffffffffffffffffffffffffffffffffffffffffffff82620002bb565b620003068683620002bb565b95508019841693508086168417925050509392505050565b6000819050919050565b6000819050919050565b6000620003536200034d62000347846200031e565b62000328565b6200031e565b9050919050565b6000819050919050565b6200036f8362000332565b620003876200037e826200035a565b848454620002c8565b825550505050565b600090565b6200039e6200038f565b620003ab81848462000364565b505050565b5b81811015620003d357620003c760008262000394565b600181019050620003b1565b5050565b601f8211156200042257620003ec8162000296565b620003f784620002ab565b8101602085101562000407578190505b6200041f6200041685620002ab565b830182620003b0565b50505b505050565b600082821c905092915050565b6000620004476000198460080262000427565b1980831691505092915050565b600062000462838362000434565b9150826002028217905092915050565b6200047d82620001f8565b67ffffffffffffffff81111562000499576200049862000203565b5b620004a5825462000261565b620004b2828285620003d7565b600060209050601f831160018114620004ea5760008415620004d5578287015190505b620004e1858262000454565b86555062000551565b601f198416620004fa8662000296565b60005b828110156200052457848901518255600182019150602085019450602081019050620004fd565b8683101562000544578489015162000540601f89168262000434565b8355505b6001600288020188555050505b505050505050565b600073ffffffffffffffffffffffffffffffffffffffff82169050919050565b6000620005868262000559565b9050919050565b620005988162000579565b82525050565b6000602082019050620005b560008301846200058d565b92915050565b61268080620005cb6000396000f3fe608060405234801561001057600080fd5b506004361061010b5760003560e01c806370a08231116100a2578063a22cb46511610071578063a22cb465146102a4578063b88d4fde146102c0578063c87b56dd146102dc578063e985e9c51461030c578063f2fde38b1461033c5761010b565b806370a082311461022e578063715018a61461025e5780638da5cb5b1461026857806395d89b41146102865761010b565b806323b872dd116100de57806323b872dd146101aa578063361cd6d0146101c657806342842e0e146101e25780636352211e146101fe5761010b565b806301ffc9a71461011057806306fdde0314610140578063081812fc1461015e578063095ea7b31461018e575b600080fd5b61012a60048036038101906101259190611ad8565b610358565b6040516101379190611b20565b60405180910390f35b6101486103b9565b6040516101559190611bcb565b60405180910390f35b61017860048036038101906101739190611c23565b61044b565b6040516101859190611c91565b60405180910390f35b6101a860048036038101906101a39190611cd8565b610467565b005b6101c460048036038101906101bf9190611d18565b61047d565b005b6101e060048036038101906101db9190611ea0565b61057f565b005b6101fc60048036038101906101f79190611d18565b6105d7565b005b61021860048036038101906102139190611c23565b6105f7565b6040516102259190611c91565b60405180910390f35b61024860048036038101906102439190611efc565b610609565b6040516102559190611f38565b60405180910390f35b6102666106c3565b005b6102706106d7565b60405161027d9190611c91565b60405180910390f35b61028e610701565b60405161029b9190611bcb565b60405180910390f35b6102be60048036038101906102b99190611f7f565b610793565b005b6102da60048036038101906102d59190612060565b6107a9565b005b6102f660048036038101906102f19190611c23565b6107ce565b6040516103039190611bcb565b60405180910390f35b610326600480360381019061032191906120e3565b6108e1565b6040516103339190611b20565b60405180910390f35b61035660048036038101906103519190611efc565b610975565b005b6000634906490660e01b7bffffffffffffffffffffffffffffffffffffffffffffffffffffffff1916827bffffffffffffffffffffffffffffffffffffffffffffffffffffffff191614806103b257506103b1826109fb565b5b9050919050565b6060600080546103c890612152565b80601f01602080910402602001604051908101604052809291908181526020018280546103f490612152565b80156104415780601f1061041657610100808354040283529160200191610441565b820191906000526020600020905b81548152906001019060200180831161042457829003601f168201915b5050505050905090565b600061045682610add565b5061046082610b65565b9050919050565b6104798282610474610ba2565b610baa565b5050565b600073ffffffffffffffffffffffffffffffffffffffff168273ffffffffffffffffffffffffffffffffffffffff16036104ef5760006040517f64a0ae920000000000000000000000000000000000000000000000000000000081526004016104e69190611c91565b60405180910390fd5b600061050383836104fe610ba2565b610bbc565b90508373ffffffffffffffffffffffffffffffffffffffff168173ffffffffffffffffffffffffffffffffffffffff1614610579578382826040517f64283d7b00000000000000000000000000000000000000000000000000000000815260040161057093929190612183565b60405180910390fd5b50505050565b610587610dd6565b6008600081548092919061059a906121e9565b9190505550600060085490506105b08382610e5d565b6105ba8183610e7b565b600860008154809291906105cd906121e9565b9190505550505050565b6105f2838383604051806020016040528060008152506107a9565b505050565b600061060282610add565b9050919050565b60008073ffffffffffffffffffffffffffffffffffffffff168273ffffffffffffffffffffffffffffffffffffffff160361067c5760006040517f89c62b640000000000000000000000000000000000000000000000000000000081526004016106739190611c91565b60405180910390fd5b600360008373ffffffffffffffffffffffffffffffffffffffff1673ffffffffffffffffffffffffffffffffffffffff168152602001908152602001600020549050919050565b6106cb610dd6565b6106d56000610ed7565b565b6000600760009054906101000a900473ffffffffffffffffffffffffffffffffffffffff16905090565b60606001805461071090612152565b80601f016020809104026020016040519081016040528092919081815260200182805461073c90612152565b80156107895780601f1061075e57610100808354040283529160200191610789565b820191906000526020600020905b81548152906001019060200180831161076c57829003601f168201915b5050505050905090565b6107a561079e610ba2565b8383610f9d565b5050565b6107b484848461047d565b6107c86107bf610ba2565b8585858561110c565b50505050565b60606107d982610add565b5060006006600084815260200190815260200160002080546107fa90612152565b80601f016020809104026020016040519081016040528092919081815260200182805461082690612152565b80156108735780601f1061084857610100808354040283529160200191610873565b820191906000526020600020905b81548152906001019060200180831161085657829003601f168201915b5050505050905060006108846112bd565b905060008151036108995781925050506108dc565b6000825111156108ce5780826040516020016108b692919061226d565b604051602081830303815290604052925050506108dc565b6108d7846112d4565b925050505b919050565b6000600560008473ffffffffffffffffffffffffffffffffffffffff1673ffffffffffffffffffffffffffffffffffffffff16815260200190815260200160002060008373ffffffffffffffffffffffffffffffffffffffff1673ffffffffffffffffffffffffffffffffffffffff16815260200190815260200160002060009054906101000a900460ff16905092915050565b61097d610dd6565b600073ffffffffffffffffffffffffffffffffffffffff168173ffffffffffffffffffffffffffffffffffffffff16036109ef5760006040517f1e4fbdf70000000000000000000000000000000000000000000000000000000081526004016109e69190611c91565b60405180910390fd5b6109f881610ed7565b50565b60007f80ac58cd000000000000000000000000000000000000000000000000000000007bffffffffffffffffffffffffffffffffffffffffffffffffffffffff1916827bffffffffffffffffffffffffffffffffffffffffffffffffffffffff19161480610ac657507f5b5e139f000000000000000000000000000000000000000000000000000000007bffffffffffffffffffffffffffffffffffffffffffffffffffffffff1916827bffffffffffffffffffffffffffffffffffffffffffffffffffffffff1916145b80610ad65750610ad58261133d565b5b9050919050565b600080610ae9836113a7565b9050600073ffffffffffffffffffffffffffffffffffffffff168173ffffffffffffffffffffffffffffffffffffffff1603610b5c57826040517f7e273289000000000000000000000000000000000000000000000000000000008152600401610b539190611f38565b60405180910390fd5b80915050919050565b60006004600083815260200190815260200160002060009054906101000a900473ffffffffffffffffffffffffffffffffffffffff169050919050565b600033905090565b610bb783838360016113e4565b505050565b600080610bc8846113a7565b9050600073ffffffffffffffffffffffffffffffffffffffff168373ffffffffffffffffffffffffffffffffffffffff1614610c0a57610c098184866115a9565b5b600073ffffffffffffffffffffffffffffffffffffffff168173ffffffffffffffffffffffffffffffffffffffff1614610c9b57610c4c6000856000806113e4565b6001600360008373ffffffffffffffffffffffffffffffffffffffff1673ffffffffffffffffffffffffffffffffffffffff168152602001908152602001600020600082825403925050819055505b600073ffffffffffffffffffffffffffffffffffffffff168573ffffffffffffffffffffffffffffffffffffffff1614610d1e576001600360008773ffffffffffffffffffffffffffffffffffffffff1673ffffffffffffffffffffffffffffffffffffffff168152602001908152602001600020600082825401925050819055505b846002600086815260200190815260200160002060006101000a81548173ffffffffffffffffffffffffffffffffffffffff021916908373ffffffffffffffffffffffffffffffffffffffff160217905550838573ffffffffffffffffffffffffffffffffffffffff168273ffffffffffffffffffffffffffffffffffffffff167fddf252ad1be2c89b69c2b068fc378daa952ba7f163c4a11628f55a4df523b3ef60405160405180910390a4809150509392505050565b610dde610ba2565b73ffffffffffffffffffffffffffffffffffffffff16610dfc6106d7565b73ffffffffffffffffffffffffffffffffffffffff1614610e5b57610e1f610ba2565b6040517f118cdaa7000000000000000000000000000000000000000000000000000000008152600401610e529190611c91565b60405180910390fd5b565b610e7782826040518060200160405280600081525061166d565b5050565b80600660008481526020019081526020016000209081610e9b919061243d565b507ff8e1a15aba9398e019f0b49df1a4fde98ee17ae345cb5f6b5e2c27f5033e8ce782604051610ecb9190611f38565b60405180910390a15050565b6000600760009054906101000a900473ffffffffffffffffffffffffffffffffffffffff16905081600760006101000a81548173ffffffffffffffffffffffffffffffffffffffff021916908373ffffffffffffffffffffffffffffffffffffffff1602179055508173ffffffffffffffffffffffffffffffffffffffff168173ffffffffffffffffffffffffffffffffffffffff167f8be0079c531659141344cd1fd0a4f28419497f9722a3daafe3b4186f6b6457e060405160405180910390a35050565b600073ffffffffffffffffffffffffffffffffffffffff168273ffffffffffffffffffffffffffffffffffffffff160361100e57816040517f5b08ba180000000000000000000000000000000000000000000000000000000081526004016110059190611c91565b60405180910390fd5b80600560008573ffffffffffffffffffffffffffffffffffffffff1673ffffffffffffffffffffffffffffffffffffffff16815260200190815260200160002060008473ffffffffffffffffffffffffffffffffffffffff1673ffffffffffffffffffffffffffffffffffffffff16815260200190815260200160002060006101000a81548160ff0219169083151502179055508173ffffffffffffffffffffffffffffffffffffffff168373ffffffffffffffffffffffffffffffffffffffff167f17307eab39ab6107e8899845ad3d59bd9653f200f220920489ca2b5937696c31836040516110ff9190611b20565b60405180910390a3505050565b60008373ffffffffffffffffffffffffffffffffffffffff163b11156112b6578273ffffffffffffffffffffffffffffffffffffffff1663150b7a02868685856040518563ffffffff1660e01b815260040161116b9493929190612564565b6020604051808303816000875af19250505080156111a757506040513d601f19601f820116820180604052508101906111a491906125c5565b60015b61122b573d80600081146111d7576040519150601f19603f3d011682016040523d82523d6000602084013e6111dc565b606091505b50600081510361122357836040517f64a0ae9200000000000000000000000000000000000000000000000000000000815260040161121a9190611c91565b60405180910390fd5b805181602001fd5b63150b7a0260e01b7bffffffffffffffffffffffffffffffffffffffffffffffffffffffff1916817bffffffffffffffffffffffffffffffffffffffffffffffffffffffff1916146112b457836040517f64a0ae920000000000000000000000000000000000000000000000000000000081526004016112ab9190611c91565b60405180910390fd5b505b5050505050565b606060405180602001604052806000815250905090565b60606112df82610add565b5060006112ea6112bd565b9050600081511161130a5760405180602001604052806000815250611335565b8061131484611691565b60405160200161132592919061226d565b6040516020818303038152906040525b915050919050565b60007f01ffc9a7000000000000000000000000000000000000000000000000000000007bffffffffffffffffffffffffffffffffffffffffffffffffffffffff1916827bffffffffffffffffffffffffffffffffffffffffffffffffffffffff1916149050919050565b60006002600083815260200190815260200160002060009054906101000a900473ffffffffffffffffffffffffffffffffffffffff169050919050565b808061141d5750600073ffffffffffffffffffffffffffffffffffffffff168273ffffffffffffffffffffffffffffffffffffffff1614155b1561155157600061142d84610add565b9050600073ffffffffffffffffffffffffffffffffffffffff168373ffffffffffffffffffffffffffffffffffffffff161415801561149857508273ffffffffffffffffffffffffffffffffffffffff168173ffffffffffffffffffffffffffffffffffffffff1614155b80156114ab57506114a981846108e1565b155b156114ed57826040517fa9fbf51f0000000000000000000000000000000000000000000000000000000081526004016114e49190611c91565b60405180910390fd5b811561154f57838573ffffffffffffffffffffffffffffffffffffffff168273ffffffffffffffffffffffffffffffffffffffff167f8c5be1e5ebec7d5bd14f71427d1e84f3dd0314c0f7b2291e5b200ac8c7c3b92560405160405180910390a45b505b836004600085815260200190815260200160002060006101000a81548173ffffffffffffffffffffffffffffffffffffffff021916908373ffffffffffffffffffffffffffffffffffffffff16021790555050505050565b6115b483838361175f565b61166857600073ffffffffffffffffffffffffffffffffffffffff168373ffffffffffffffffffffffffffffffffffffffff160361162957806040517f7e2732890000000000000000000000000000000000000000000000000000000081526004016116209190611f38565b60405180910390fd5b81816040517f177e802f00000000000000000000000000000000000000000000000000000000815260040161165f9291906125f2565b60405180910390fd5b505050565b6116778383611820565b61168c611682610ba2565b600085858561110c565b505050565b6060600060016116a084611919565b01905060008167ffffffffffffffff8111156116bf576116be611d75565b5b6040519080825280601f01601f1916602001820160405280156116f15781602001600182028036833780820191505090505b509050600082602001820190505b600115611754578080600190039150507f3031323334353637383961626364656600000000000000000000000000000000600a86061a8153600a85816117485761174761261b565b5b049450600085036116ff575b819350505050919050565b60008073ffffffffffffffffffffffffffffffffffffffff168373ffffffffffffffffffffffffffffffffffffffff161415801561181757508273ffffffffffffffffffffffffffffffffffffffff168473ffffffffffffffffffffffffffffffffffffffff1614806117d857506117d784846108e1565b5b8061181657508273ffffffffffffffffffffffffffffffffffffffff166117fe83610b65565b73ffffffffffffffffffffffffffffffffffffffff16145b5b90509392505050565b600073ffffffffffffffffffffffffffffffffffffffff168273ffffffffffffffffffffffffffffffffffffffff16036118925760006040517f64a0ae920000000000000000000000000000000000000000000000000000000081526004016118899190611c91565b60405180910390fd5b60006118a083836000610bbc565b9050600073ffffffffffffffffffffffffffffffffffffffff168173ffffffffffffffffffffffffffffffffffffffff16146119145760006040517f73c6ac6e00000000000000000000000000000000000000000000000000000000815260040161190b9190611c91565b60405180910390fd5b505050565b600080600090507a184f03e93ff9f4daa797ed6e38ed64bf6a1f0100000000000000008310611977577a184f03e93ff9f4daa797ed6e38ed64bf6a1f010000000000000000838161196d5761196c61261b565b5b0492506040810190505b6d04ee2d6d415b85acef810000000083106119b4576d04ee2d6d415b85acef810000000083816119aa576119a961261b565b5b0492506020810190505b662386f26fc1000083106119e357662386f26fc1000083816119d9576119d861261b565b5b0492506010810190505b6305f5e1008310611a0c576305f5e1008381611a0257611a0161261b565b5b0492506008810190505b6127108310611a31576127108381611a2757611a2661261b565b5b0492506004810190505b60648310611a545760648381611a4a57611a4961261b565b5b0492506002810190505b600a8310611a63576001810190505b80915050919050565b6000604051905090565b600080fd5b600080fd5b60007fffffffff0000000000000000000000000000000000000000000000000000000082169050919050565b611ab581611a80565b8114611ac057600080fd5b50565b600081359050611ad281611aac565b92915050565b600060208284031215611aee57611aed611a76565b5b6000611afc84828501611ac3565b91505092915050565b60008115159050919050565b611b1a81611b05565b82525050565b6000602082019050611b356000830184611b11565b92915050565b600081519050919050565b600082825260208201905092915050565b60005b83811015611b75578082015181840152602081019050611b5a565b60008484015250505050565b6000601f19601f8301169050919050565b6000611b9d82611b3b565b611ba78185611b46565b9350611bb7818560208601611b57565b611bc081611b81565b840191505092915050565b60006020820190508181036000830152611be58184611b92565b905092915050565b6000819050919050565b611c0081611bed565b8114611c0b57600080fd5b50565b600081359050611c1d81611bf7565b92915050565b600060208284031215611c3957611c38611a76565b5b6000611c4784828501611c0e565b91505092915050565b600073ffffffffffffffffffffffffffffffffffffffff82169050919050565b6000611c7b82611c50565b9050919050565b611c8b81611c70565b82525050565b6000602082019050611ca66000830184611c82565b92915050565b611cb581611c70565b8114611cc057600080fd5b50565b600081359050611cd281611cac565b92915050565b60008060408385031215611cef57611cee611a76565b5b6000611cfd85828601611cc3565b9250506020611d0e85828601611c0e565b9150509250929050565b600080600060608486031215611d3157611d30611a76565b5b6000611d3f86828701611cc3565b9350506020611d5086828701611cc3565b9250506040611d6186828701611c0e565b9150509250925092565b600080fd5b600080fd5b7f4e487b7100000000000000000000000000000000000000000000000000000000600052604160045260246000fd5b611dad82611b81565b810181811067ffffffffffffffff82111715611dcc57611dcb611d75565b5b80604052505050565b6000611ddf611a6c565b9050611deb8282611da4565b919050565b600067ffffffffffffffff821115611e0b57611e0a611d75565b5b611e1482611b81565b9050602081019050919050565b82818337600083830152505050565b6000611e43611e3e84611df0565b611dd5565b905082815260208101848484011115611e5f57611e5e611d70565b5b611e6a848285611e21565b509392505050565b600082601f830112611e8757611e86611d6b565b5b8135611e97848260208601611e30565b91505092915050565b60008060408385031215611eb757611eb6611a76565b5b6000611ec585828601611cc3565b925050602083013567ffffffffffffffff811115611ee657611ee5611a7b565b5b611ef285828601611e72565b9150509250929050565b600060208284031215611f1257611f11611a76565b5b6000611f2084828501611cc3565b91505092915050565b611f3281611bed565b82525050565b6000602082019050611f4d6000830184611f29565b92915050565b611f5c81611b05565b8114611f6757600080fd5b50565b600081359050611f7981611f53565b92915050565b60008060408385031215611f9657611f95611a76565b5b6000611fa485828601611cc3565b9250506020611fb585828601611f6a565b9150509250929050565b600067ffffffffffffffff821115611fda57611fd9611d75565b5b611fe382611b81565b9050602081019050919050565b6000612003611ffe84611fbf565b611dd5565b90508281526020810184848401111561201f5761201e611d70565b5b61202a848285611e21565b509392505050565b600082601f83011261204757612046611d6b565b5b8135612057848260208601611ff0565b91505092915050565b6000806000806080858703121561207a57612079611a76565b5b600061208887828801611cc3565b945050602061209987828801611cc3565b93505060406120aa87828801611c0e565b925050606085013567ffffffffffffffff8111156120cb576120ca611a7b565b5b6120d787828801612032565b91505092959194509250565b600080604083850312156120fa576120f9611a76565b5b600061210885828601611cc3565b925050602061211985828601611cc3565b9150509250929050565b7f4e487b7100000000000000000000000000000000000000000000000000000000600052602260045260246000fd5b6000600282049050600182168061216a57607f821691505b60208210810361217d5761217c612123565b5b50919050565b60006060820190506121986000830186611c82565b6121a56020830185611f29565b6121b26040830184611c82565b949350505050565b7f4e487b7100000000000000000000000000000000000000000000000000000000600052601160045260246000fd5b60006121f482611bed565b91507fffffffffffffffffffffffffffffffffffffffffffffffffffffffffffffffff8203612226576122256121ba565b5b600182019050919050565b600081905092915050565b600061224782611b3b565b6122518185612231565b9350612261818560208601611b57565b80840191505092915050565b6000612279828561223c565b9150612285828461223c565b91508190509392505050565b60008190508160005260206000209050919050565b60006020601f8301049050919050565b600082821b905092915050565b6000600883026122f37fffffffffffffffffffffffffffffffffffffffffffffffffffffffffffffffff826122b6565b6122fd86836122b6565b95508019841693508086168417925050509392505050565b6000819050919050565b600061233a61233561233084611bed565b612315565b611bed565b9050919050565b6000819050919050565b6123548361231f565b61236861236082612341565b8484546122c3565b825550505050565b600090565b61237d612370565b61238881848461234b565b505050565b5b818110156123ac576123a1600082612375565b60018101905061238e565b5050565b601f8211156123f1576123c281612291565b6123cb846122a6565b810160208510156123da578190505b6123ee6123e6856122a6565b83018261238d565b50505b505050565b600082821c905092915050565b6000612414600019846008026123f6565b1980831691505092915050565b600061242d8383612403565b9150826002028217905092915050565b61244682611b3b565b67ffffffffffffffff81111561245f5761245e611d75565b5b6124698254612152565b6124748282856123b0565b600060209050601f8311600181146124a75760008415612495578287015190505b61249f8582612421565b865550612507565b601f1984166124b586612291565b60005b828110156124dd578489015182556001820191506020850194506020810190506124b8565b868310156124fa57848901516124f6601f891682612403565b8355505b6001600288020188555050505b505050505050565b600081519050919050565b600082825260208201905092915050565b60006125368261250f565b612540818561251a565b9350612550818560208601611b57565b61255981611b81565b840191505092915050565b60006080820190506125796000830187611c82565b6125866020830186611c82565b6125936040830185611f29565b81810360608301526125a5818461252b565b905095945050505050565b6000815190506125bf81611aac565b92915050565b6000602082840312156125db576125da611a76565b5b60006125e9848285016125b0565b91505092915050565b60006040820190506126076000830185611c82565b6126146020830184611f29565b9392505050565b7f4e487b7100000000000000000000000000000000000000000000000000000000600052601260045260246000fdfea264697066735822122072833c1168e792e33b661602ef549513ff0ac4559462efffa23b82702716483b64736f6c63430008140033",
  "linkReferences": {},
  "deployedLinkReferences": {}
}